:020000040040BA
:10000000E82E4020C5164000C3164000C31640002D
:10001000C3164000C3164000C31640000000000095
:100020000000000000000000000000009D1A4000D9
:10003000C3164000000000003D1B4000A51B40000F
:10004000C3164000C3164000453B4000C3164000A5
:10005000C3164000C3164000C3164000C31640003C
:10006000C316400000000000B5134000C913400053
:10007000DD134000C3164000C3164000C316400005
:10008000F113400005144000C3164000C3164000A1
:10009000C3164000C3164000C3164000C3164000FC
:1000A000113B4000DD3B4000C3164000B13B400027
:1000B000C316400021044000C3164000C316400090
:1000C000C3164000C3164000C3164000C3164000CC
:1000D00000000000C316400000000000C3164000EE
:1000E00035044000C3164000C3164000C31640004C
:1000F000C3164000C3164000C3164000C31640009C
:10010000C3164000C3164000C3164000C31640008B
:10011000C3164000000000000000000000000000C6
:10012000C3164000C3164000C3164000C31640006B
:10013000C316400000000000C3164000C316400074
:1001400010B5054C237833B9044B13B10448AFF311
:1001500000800123237010BDC00940200000000072
:100160005C7840000C4B43B10C480D4910B5AFF31F
:1001700000800C48036823B910BD0A48036833B9EE
:100180007047094B002BF7D0BDE810401847064BCD
:10019000002BF5D0184700BF000000005C7840003D
:1001A000C40940205C7840000000000070B582B0B7
:1001B000026BC36A1340019300241C4E1C4DA842DD
:1001C00014BF0020012005010BE00E2C1ED8019A5F
:1001D00004F10C0101238B40134210D10134102C87
:1001E00022D00B2CF1D8019A0123A3401342F5D061
:1001F0002B1956F82330002BF0D09847EEE72B1937
:1002000056F82330002BE9D09847E7E7019A04F12C
:100210000F0101238B401342E0D02B1956F82330F5
:10022000002BDBD09847D9E702B070BDD80D402035
:100230000040064030B4046E01238B4024EA0304DE
:100240001578002D08BF002323430366446D4B003F
:100250000321994024EA01045178994021434165E2
:1002600030BC70474B780A78134303678A884B8801
:1002700043EA02434367704700220260084B436031
:10028000084B83604FF48023C3600223037401236F
:1002900043748374C274037543758375704700BFDC
:1002A00000A3E111808D5B000023037001234370E4
:1002B00070470023037020234370FF23438040F6E0
:1002C000FF73838070470000026B12F0807201D0D0
:1002D0001920704710B401230360CB7C002B18BF9A
:1002E0004FF000424B688C68B3FBF4F3013B1B02F8
:1002F0009BB2CC6844F4000423430C7C240604F035
:10030000706423434C7C240704F04054234313437C
:1003100043600B7D002B14BF4FF0807300230A68ED
:1003200013434A7D002A14BF4FF00072002213438A
:1003300083608B7D1B0203F4407343F00C03C0F811
:1003400094300F4B984206D00E4B98420DD00020AF
:100350005DF8044B70470C4B03F14001002243F859
:10036000042F8B42FBD10020F2E7084B03F1400140
:10037000002243F8042B8B42FBD10020E8E700BFAA
:1003800000C0034000400640D40D4020180E40201D
:100390000C4B994207D00B290BD806D0012303FA46
:1003A00001F141627047436270474FF4006343625A
:1003B00070470E2994BF0C310F31012303FA01F16C
:1003C00041627047FF0F004738B5114CA0420CBF87
:1003D000102400240C440F4D45F824200AD10E4A65
:1003E0004FF48074C2F884415B01DBB282F8283399
:1003F000546009E0084A4FF00054C2F880415B01A4
:10040000DBB282F81D331460044B984738BD00BF3F
:1004100000400640D80D402000E100E0910340007C
:1004200008B50248024B984708BD00BF00C0034012
:10043000AD01400008B50248024B984708BD00BF17
:1004400000400640AD01400000B583B0134B984218
:100450000CBF28201D20124B9847124B9B78FF2B76
:100460001AD0EFF31083B3FA83F35B09019372B6EA
:10047000BFF35F8F00220C4B1A700199094A9378E1
:100480000133937029B10122074B1A70BFF35F8FBC
:1004900062B603B05DF804FBFEE700BF0040064013
:1004A00039154000D00D40200A00402021B9436892
:1004B00023F0010343607047436843F00103436046
:1004C00070470162704730B485688468A54203D0E4
:1004D00085688468AC42FBD161B1C4F3015000EB84
:1004E0008005C4F3034000EB450014F4800F18BFEF
:1004F0000C30086042B1C4F3023101EB8101C4F356
:10050000032000EB4101116043B1C4F3021202EB7E
:10051000820204F00F0404EB42041C6030BC7047FC
:10052000F0B4446814F0010F05D00C2903D90C393C
:100530004FF4800700E000271C4CA4FB0356F6088C
:1005400006EB8605A3EB450343EA0613A4FB02650D
:10055000ED0843EA053305EB8505A2EB450543EAC3
:1005600005233B43A4FB0142D20843EA025302EBBA
:100570008202A1EB420143EA0141836913F0040FB7
:10058000FBD0036843F001030360836913F0010F9C
:10059000FBD00123C3618160036823F00103036082
:1005A000C06A00F00100F0BC704700BFCDCCCCCCDD
:1005B000F0B4049EC568C468A54203D0C568C46889
:1005C000AC42FBD199B1C4F3033000EB8000C4F31B
:1005D000032707EB4007C4F3021000EB800504F08B
:1005E0000F0000EB4500642505FB0070086042B178
:1005F000C4F3005081000844C4F3034101EB4001FF
:10060000116043B1C4F3017202EB8202C4F30361CF
:1006100001EB42021A6016B1C4F342543460F0BCDC
:100620007047000070B42A4DA5FB0346F608039CF2
:10063000640544EA067406EB8606A3EB460344EA27
:100640000363A5FB0264E40843EA045304EB840457
:10065000A2EB440243EA02421E4BA3FB01439B0967
:1006600042EA03121C4BA3FB01435B09A5FB036495
:10067000E40804EB8404A3EB44031A43A5FB014301
:10068000DB0803EB8304A1EB440142EA0122A5FB52
:100690000315ED0805EB8505A3EB450542EA053298
:1006A000836913F0040FFBD0036843F00203036077
:1006B000836913F0010FFBD00123C361C26003689B
:1006C00023F002030360C06A00F0020070BC7047B0
:1006D000CDCCCCCCD34D62101F85EB5180697047D7
:1006E000C161704708B5074B984203D0064B98424A
:1006F00004D008BD1520054B984708BD2A20034BA0
:100700009847F6E70080004000800540391540001A
:10071000436823F4702343604368090401F47021A3
:1007200019434160704730B443F69924056915F0C8
:10073000020F03D1013CF9D101200CE0446814F010
:10074000020F06D0120402F4702211430BB141F0E3
:100750008071C160002030BC704732B900EB81006D
:10076000036B23F001030363704700EB8100036B0D
:1007700043F001030363704732B900EB8100036B60
:1007800023F002030363704700EB8100036B43F027
:10079000020303637047042A03D06AB1082A16D003
:1007A000704700EB8100036B23F008030363036BC6
:1007B00043F004030363704700EB8100036B23F0F5
:1007C00008030363036B23F004030363704700EB28
:1007D0008100036B43F008030363E1E700EB810151
:1007E0000B6B23F0F0030B630B6B1A430A63704728
:1007F000431E1944B1FBF0F0431EFE2B94BF00B220
:100800004FF0FF3070477AB110B4144600EB81010D
:100810000B6B23F47F430B630A6B42EA04220A63E7
:1008200000205DF8044B70474FF0FF30704710B464
:1008300089014318022444504FF0FF319962196A2C
:100840005A605DF8044B7047890105234350704797
:10085000890102234350704700EB8111CA61704740
:1008600000EB81114A62704700EB8111086A704702
:10087000F0B486B002240194082402942024039446
:10088000802404940A9CE40B0594B0EB510F14D817
:100890004C0CA04217D2012501AF57F82540B1FBFF
:1008A000F4F4260C84420AD386420DD90135052D75
:1008B000F3D1002006B0F0BC70470020FAE700201A
:1008C000F8E70120F6E700252AB106A901EB85012A
:1008D00051F8141C1160002BF3D01D600120E9E7D2
:1008E000014B1860704700BFDC094020024B1B68B9
:1008F00003EBC01042547047DC094020024B1B68D8
:1009000003EBC010405C7047DC094020002A48D04F
:100910002DE9F04714461F4606464A1E2244D2B22D
:10092000914231D01F2A28BF1F221546CC084FEA1A
:10093000D20801F00702FF2303FA02F2D2B205F057
:100940000705C5F1070543FA05F5EDB2444520D08A
:100950003B4601462046DFF84C90C8470134A0458D
:100960000AD94FF0FF0A3B46524631462046C84757
:100970000134E4B2A045F6D83B462A46314640460B
:10098000084CA047BDE8F0871A46074B9847BDE8DA
:10099000F0873B462A4001462046024CA047BDE86E
:1009A000F0877047CD0B4000690B40002DE9F04FF8
:1009B00085B08146009101939DF838B07AB1164612
:1009C0005500C5F1030501274FF000080BF00303A4
:1009D0000293DFF8F0A00BF00C0303934DE01A46EE
:1009E000374B984705B0BDE8F08F009B191B09EB0A
:1009F0000600019B3A46C9B2C0B2D047721C0099AA
:100A0000891B09EB0400019BD2B2C9B2C0B2D04726
:100A100038E0009B191BA9EB0600019B3A46C9B2BE
:100A2000C0B2D047721C0099891BA9EB0400019B3E
:100A3000D2B2C9B2C0B2D04727E0A9EB0600019BF1
:100A40003A460099C0B2D047721CA9EB0400019B42
:100A5000D2B20099C0B2D0471AE0002D2BDBA41B04
:100A60000A3505EB840425B2013EF6B208F101080F
:100A70007B1CDBB2BE42B5D31F465FFA88F4029BF3
:100A8000002BB2D1039B002BC3D11BF0300FD4D16C
:100A90001BF0C00FE1D009EB0600019B3A4600991C
:100AA000C0B2D047721C09EB0400019BD2B200997E
:100AB000C0B2D047D1E7063505EB84052DB2D5E7A6
:100AC000690B40000D09400070B504460D461646FE
:100AD0001BB90D4B9847B04215D0324629462046E7
:100AE0000A4B984704F00F0040F0B000084CA047B4
:100AF000C5F3021040F01000A04705F00F00A0471A
:100B00003046044B984770BDFD084000ED0840009A
:100B1000110C4000310E40002DE9F0410D480E4B04
:100B200098470E4B984740200D4B984700254FF0B3
:100B300001082F460B4E002443463A46E1B22846B0
:100B4000B0470134802CF7D10135EDB2042DF2D13C
:100B5000BDE8F081E0094020E1084000510C400070
:100B6000110C4000C90A4000C3092AD11F2928D806
:100B70002DE9F04114460546CE08A1EBC60101223D
:100B800002FA01F75FFA87F8014630460D4B9847A5
:100B90000246012C09D064B1022C0ED00023294654
:100BA0003046094CA047BDE8F08148EA0002D2B2C5
:100BB000F4E720EA0702D2B2F0E788EA0002D2B2F4
:100BC000ECE77047FD084000C90A4000F8B505464B
:100BD0000E4617461C460C4B98470246012C08D07F
:100BE00054B1022C0CD0002331462846074CA047B4
:100BF000F8BD3A43D2B2F6E720EA0702D2B2F2E7F2
:100C00007A40D2B2EFE700BFFD084000C90A4000B9
:100C100038B505460822094B5A63094C0121204684
:100C2000084B984701231A4629462046064CA04700
:100C30004FF4FD70054B984738BD00BF00100E40C3
:100C400000800040110740002707400001004020BD
:100C50002DE9F843664D4FF400362E61C5F8A060CB
:100C6000644B08271F61C3F8A0706E66C5F89060DA
:100C70006E656E62C5F880602A6F22F400322A67C2
:100C80006A6F22F400326A675F66C3F890705F652E
:100C90005F62C3F880701A6F22F008021A675A6FF9
:100CA00022F008025A671F602E601F632E63DFF870
:100CB0007C8100234FF480024FF0805140464E4C1F
:100CC000A04700234FF400124FF080514046A04748
:100CD00000234FF000724FF080514046A0470023A0
:100CE0004FF480024FF080514046A04700234FF45C
:100CF00000124FF080514046A04700234FF0007291
:100D00004FF080514046A0473C4C4FF00209C4F8D8
:100D100000904FF08008C4F80080636843F001033E
:100D200063603A4601212046354B98470022012155
:100D30002046344B9847002201212046324B9847E9
:100D4000636823F0020363600022012120462F4BD9
:100D50009847636823F080036360636843F010037F
:100D600063602B492B482C4B9847C2B20121204687
:100D70002A4B984720462A4B9847012323606E63ED
:100D800040F6B830274CA0472E6340F6B830A04755
:100D90002E63A820244CA0471F20A047D320A047A3
:100DA0000020A0474020A047A120A047C820A0477E
:100DB000DA20A0474846A0478120A0478F20A047BF
:100DC000A420A047A620A047D520A0474046A04782
:100DD0008D20A0471420A047DB20A0474020A0473B
:100DE000D920A047F120A047AF20A047BDE8F88355
:100DF00000120E4000100E4019124000008000400A
:100E0000970740005B07400079074000DD0740007E
:100E100080D1F00880841E00F107400007084000E0
:100E2000E506400001004020110C400000140E4077
:100E300038B505460822094B1A63094C01212046A2
:100E4000084B984701231A4629462046064CA047DE
:100E50004FF4FD70054B984738BD00BF00100E40A1
:100E6000008000401107400027074000010040209B
:100E700010B51048104B98473E2100200F4B984763
:100E80000F4CA0470028FCD00E4B98470E4A0F4B42
:100E90009A620F4CA0470028FCD002200D4B9847C7
:100EA00000200D4B98470D4B98470248024B98473E
:100EB00010BD00BF00A3E11199184000B514400017
:100EC0000915400019154000013F182000060E408A
:100ED0002915400019144000511440008D1740009E
:100EE0002DE9F04180B90C469046002A0FDD8F189D
:100EF000084E094D306821462B6898470134BC42A2
:100F0000F8D14046BDE8F0814FF0FF38F9E7804660
:100F1000F7E700BF600E4020580E4020013802283D
:100F200015D82DE9F0410E4614469AB10D46DFF86A
:100F300038800C4FD8F8000015F8011B3B68984723
:100F400000280ADBA81B013CF4D1BDE8F0814FF07A
:100F5000FF3070471046BDE8F0814FF0FF30BDE82C
:100F6000F08100BF5C0E4020600E4020F8B54FF4C9
:100F700000425C4B5A60BFF34F8FBFF36F8F5A4BE9
:100F80000022C3F850225A6942F400325A61BFF37A
:100F90004F8FBFF36F8FD3F88070C7F34E3607F0D3
:100FA00007000430C7F3C907B7FA87FE0EF01F0E1B
:100FB000BFF34F8F4FF0FF3404FA00FC06FA00F045
:100FC00004FA0EF407FA0EFE1D463A46734640EA4E
:100FD0000301C5F86012013A2344B2F1FF3FF6D194
:100FE000013E6044B6F1FF3FEFD1BFF34F8F3E4B60
:100FF0005A6942F480325A61BFF34F8FBFF36F8F4B
:101000003A4A3B495160A1F580715160BFF34F8F5F
:10101000BFF36F8FD3F8902222F00102C3F8902221
:10102000D3F8942222F00102C3F89422BFF34F8F29
:10103000BFF36F8F0A202F4CA0470B20A0470C2036
:10104000A0471020A0471120A0472B4B4FF48072DF
:101050001A61C3F8A0201A63A3F580634FF40062FD
:101060005A61C3F8A0205A66C3F890205A651A62E4
:10107000C3F88420196F21F400611967596F21F4B6
:1010800000615967C3F8C020C3F8D420C3F8B0206A
:101090004FF400121A66C3F890205A655A62C3F8DA
:1010A0008020196F21F400111967596F21F4001184
:1010B00059675A60114AD2F8143143F01003C2F84C
:1010C00014310F4B10221A66C3F890205A655A62E9
:1010D000C3F88020196F11431967596F114359677D
:1010E0005A60F8BD50180E4000ED00E0000C0E40B4
:1010F0000C08005A3915400000120E4000800840CC
:1011000000100E40016370474163704721F0006199
:10111000B1F1405F05D1836B134214BF0120002061
:101120007047C36BF8E74264B1F1C05F3AD013D89F
:10113000B1F1006F25D0B1F1805F0AD1036F134385
:101140000367436F416F0B4023EA0203436742602A
:1011500070470029FBD17047B1F1205F21D009D839
:10116000B1F1005FF3D1036F13430367436F134380
:101170004367ECE7B1F1405F13D0B1F1605F10D08D
:10118000E5E710B4016F046FD34321401C461940BA
:101190000167436F416F0B402340436742605DF836
:1011A000044B7047036F016F0B4023EA0203036790
:1011B000436F13434367CAE7416412F0010F0DD137
:1011C000016612F00A0F0BD0016212F0020F09D172
:1011D00012F0080F08D0C0F8841005E04166F0E76F
:1011E0004162F2E7C0F8801041610160704710B4BD
:1011F000019C41644CB901664BB101654AB9416338
:10120000016101605DF8044B70474166F4E7416598
:10121000F4E70163F4E7000070B582B005461646B6
:101220001C46B1F1005F14D00AD9B1F1405F24D05F
:10123000B1F1605F21D0B1F1205F17D000201AE03A
:10124000B1F1805F05D0B1F1C05F02D0B1F1006FA4
:10125000F4D132462846114B984714F0010F02D1C1
:101260002E66012007E06E66012004E01A46314632
:101270000B4B9847012002B070BD04F001030093AE
:10128000C4F38003B1F1605F14BF00220122314634
:101290002846044CA0470120EDE700BF271140007D
:1012A000B9114000EF114000836B0B4214BF0120C5
:1012B0000020704712F0100F12D0C0F8B01012F0DA
:1012C000200F07D0C0F8D41012F0400F05D0C0F89E
:1012D000C0107047C0F8D010F6E7C0F8C4107047CF
:1012E000C0F8B410704701647047C06C7047806CE0
:1012F000704700002DE9F041044688460E4B9847A0
:10130000054620460D4B9847054013D00C4C04F180
:10131000600603E0B4420DD010345DB12068404552
:10132000F8D161682942F5D0E3689847636825EAF7
:101330000305EFE7BDE8F081EB124000EF1240003B
:10134000E00B4020F8B5184C2668062E2AD84FF03E
:10135000000C6446154F04E00134E4B2A446A642F2
:1013600009D3A64625017D598D42F5D107EB041519
:101370006D689542F0D10D4D4FEA0E1E05EB0E043F
:1013800045F80E106260A3600699E160013666457B
:1013900005D011461A46064B98470020F8BD024971
:1013A0000E60F6E70120F8BD500C4020E00B402015
:1013B000B512400008B50A210148024B984708BD04
:1013C000000E0E40F512400008B50B210148024BFB
:1013D000984708BD00100E40F512400008B50C21DA
:1013E0000148024B984708BD00120E40F51240001C
:1013F00008B510210148024B984708BD00140E4063
:10140000F512400008B511210148024B984708BD6C
:1014100000160E40F5124000032811D0042812D007
:1014200002280CBF4FF480710021084A136B23F48B
:1014300040730B431363936E13F0080FFBD0704798
:101440004FF44071F1E74FF40071EEE700060E40F3
:10145000174A136B23F0700318431063936E13F055
:10146000080F0AD14FF4805311498A6E12F0080F09
:1014700003D1013BF9D1012070470D4A136B23F0D2
:10148000030343F002031363936E13F0080F0AD1B2
:101490004FF4805306498A6E12F0080F05D1013BC4
:1014A000F9D101207047002070470020704700BF2D
:1014B00000060E40A0B90E48036A090289B20D4A1F
:1014C0001A400D4B1343194301620246936E13F009
:1014D000010FFBD0064A116A084B0B431362704799
:1014E00003490B6A064A1A40064B13430B627047C6
:1014F00000060E40FCFFC8FF010037000000370166
:10150000FCFFC8FE02003701024B986E00F48030E9
:10151000704700BF00060E404FF00052014B9A6228
:10152000704700BF00060E40024B986E00F00200AC
:10153000704700BF00060E403F281ED81F280CD859
:10154000114B9A6901238340934318D0012303FA76
:1015500000F00D4B18610020704720380A4BD3F87B
:1015600008210123834093430BD0012303FA00F0A9
:10157000054BC3F800010020704701207047002090
:1015800070470020704700BF00060E40436913F00B
:10159000020F02D0C16100207047012070474369EB
:1015A00013F0010F03D083690B70002070470120F6
:1015B000704710B40B01934214D9C9004B0803EBD8
:1015C000C202B2FBF1F2D3085C1E4FF6FE718C42F0
:1015D00001D9012017E0416841F4002141600CE08D
:1015E000012010E0590801EBC202B2FBF3F2D3086C
:1015F0005C1E4FF6FE718C42F2D8120402F4E02217
:101600001A43026200205DF8044B7047084BC0F893
:10161000E430002343604362836288230360242311
:1016200003604FF4807303604FF40023036070473E
:101630000041535570B505460C4616460F4B98476A
:1016400000220F4B1A60A4B13246216828460D4B88
:101650009847024678B96368A1680B4321690B4338
:10166000E1680B4306490B6069680B436B601046E9
:1016700070BD0122FBE70122F9E700BF0D16400013
:10168000540C4020B31540004023036070471023E2
:1016900003607047436913F0020F04D0C1F30801DF
:1016A000C1610020704701207047436913F0010FAA
:1016B00005D08369C3F308030B6000207047012045
:1016C0007047FEE700B583B0254B264A9A4210D0FA
:1016D000254B234A9A420CD2013B9B1A23F0030369
:1016E000043313441F4951F8040B42F8040B9A4287
:1016F000F9D11E4B1E4A9A420AD2013B9B1A23F093
:10170000030304331344002142F8041B9342FBD12A
:10171000184A194B23F07F039360EFF31083B3FA59
:1017200083F35B09019372B6BFF35F8F0022134B03
:101730001A700199124A136843F470031360BFF3DF
:101740004F8FBFF36F8F29B101220C4B1A70BFF37B
:101750005F8F62B60B4B98470B4B9847FEE700BF75
:10176000000040205C784000C0094020E80E402086
:10177000C009402000ED00E0000040000A004020C9
:1017800088ED00E02D484000794240003B4B1B6B48
:1017900003F00303012B1DD083B1022B36D0374B4E
:1017A0001B6B03F07003702B5FD0344B1A6B344902
:1017B000C2F302120B68D3400B607047314B5B6978
:1017C00013F0800F14BF4FF400424FF4FA422C4B39
:1017D0001A60E4E7294B1B6A13F0807F03D02A4A82
:1017E000274B1A60DBE7294A254B1A60234B1B6AFB
:1017F00003F07003102B05D0202BD0D1224A204BB0
:101800001A60CCE7224A1E4B1A60C8E71B4B1B6AC2
:1018100013F0807F16D01C4A194B1A60174B1B6BB4
:1018200003F00303022BBAD1144A916A926A144856
:10183000C1F30A41036801FB0333D2B2B3FBF2F3F5
:101840000360ACE7114A0E4B1A600C4B1B6A03F0A5
:101850007003102B05D0202BE0D10B4A084B1A60E7
:10186000DCE70B4A064B1A60D8E7054A13680949BA
:10187000A1FB03135B081360704700BF00060E4016
:101880000C00402010180E40001BB70000093D005E
:1018900000127A00ABAAAAAA164B984213D9164B8B
:1018A000984215D9154B984216D9154B984217D91D
:1018B000144B984218D9144B984294BF134A144AB7
:1018C000144B1A6070474FF08062124B1A607047D9
:1018D000114A104B1A607047104A0E4B1A6070473D
:1018E0000F4A0C4B1A6070474FF00422094B1A60E4
:1018F000704700BFBFF35E017FE7BD023FDB1C0402
:10190000FFCE7B05BFC2DA067FB6390800050004AA
:1019100000060004000C0E40000100040002000458
:10192000000300040A4B1B6853B1094B1B681A18CB
:101930000849914208DB1046054A10601846704776
:10194000054A034B1A60F0E74FF0FF30704700BFC5
:10195000580C4020FCFF4520E83040204FF0FF307D
:1019600070474FF400534B600020704701207047D0
:101970000020704700F1080343604FF0FF3282609F
:10198000C360036100230360704700230361704755
:1019900043684B609A688A609A68516099600861F0
:1019A000036801330360704730B40D68B5F1FF3F41
:1019B00002D000F1080202E0026904E01A4653680E
:1019C0001C68A542FAD253684B6099608A605160E6
:1019D000086103680133036030BC704703694268E3
:1019E000816891608268416851605A68904205D070
:1019F00000220261186801381860704782685A60D6
:101A0000F6E700000D4B1B68B3F1FF3F0AD04FF023
:101A1000800372B683F31188BFF36F8FBFF34F8FCC
:101A200062B6FEE74FF0800372B683F31188BFF30E
:101A30006F8FBFF34F8F62B6FEE700BF10004020EC
:101A400006480068006880F3088862B661B6BFF394
:101A50004F8FBFF36F8F00DF00BF000008ED00E085
:101A6000DFF80C00016841F470010160704700006C
:101A700088ED00E04FF0807340F8043C40F8081C0B
:101A8000054B40F80C3C40F8202C6FF0020340F866
:101A9000243C4438704700BF051A4000064B1968C3
:101AA0000868B0E8F04F80F30988BFF36F8F4FF0FC
:101AB000000080F311887047640C4020704700BF1D
:101AC0004FF0800372B683F31188BFF36F8FBFF3BB
:101AD0004F8F62B60B4A136801331360012B0FD18D
:101AE000094B1B6813F0FF0F0AD04FF0800372B64A
:101AF00083F31188BFF36F8FBFF34F8F62B6FEE79A
:101B0000704700BF1000402004ED00E00A4B1B6846
:101B100053B94FF0800372B683F31188BFF36F8F10
:101B2000BFF34F8F62B6FEE7013B034A13600BB968
:101B300083F31188704700BF10004020EFF3098045
:101B4000BFF36F8F154B1A681EF0100F08BF20ED02
:101B5000108A20E9F04F10604DF8043D4FF08000EE
:101B600072B680F31188BFF34F8FBFF36F8F62B6E9
:101B700001F0BAF84FF0000080F3118808BC196832
:101B80000868B0E8F04F1EF0100F08BFB0EC108AE4
:101B900080F30988BFF36F8F704700BF640C40204B
:101BA000704700BF08B5EFF311834FF0800272B6A3
:101BB00082F31188BFF36F8FBFF34F8F62B6054B6F
:101BC000984718B14FF08052034B1A60002383F3FB
:101BD000118808BD5529400004ED00E0034A044B7C
:101BE0001A600722043B1A60704700BFBF27090034
:101BF00014E000E000B583B0254B1A78D2B2019210
:101C0000FF221A701B78DBB28DF803309DF8033089
:101C100003F080031F4A137007221F4B1A609DF8C0
:101C2000033013F0800F10D0062200E00A469DF822
:101C300003305B00DBB28DF803309DF80330511E9A
:101C400013F0800FF2D1144B1A60134A13681B0271
:101C500003F4E0631360019BDBB20D4A13700F4B7A
:101C60001A6842F460021A601A6842F060421A6010
:101C70000B4B984700220B4B1A600B4B98470B4AB3
:101C8000136843F040431360094B9847094B98474A
:101C900000E400E05C0C4020600C402020ED00E0FF
:101CA000DD1B400010004020611A400034EF00E0CE
:101CB000411A4000051A4000EFF305830F2B11D99C
:101CC000124A9B5CDBB2124A12789A420AD94FF050
:101CD000800372B683F31188BFF36F8FBFF34F8F0A
:101CE00062B6FEE70B4B1B6803F4E0630A4A126816
:101CF00093420AD94FF0800372B683F31188BFF381
:101D00006F8FBFF34F8F62B6FEE77047F0E300E0DE
:101D10005C0C40200CED00E0600C402010B5044647
:101D2000064B98472046064B98470446054B984774
:101D30000CB1204610BD044B9847FAE73929400002
:101D4000A5484000A12A4000FB3A400048B110B528
:101D50000446044B98472046034B9847034B98474B
:101D600010BD704739294000B5484000A12A400005
:101D700038B504461546026C5AB90368002B2ED1BB
:101D800040681B4B984700236360A36B0133A36338
:101D900038BD6DB98068174B9847A368226C13440F
:101DA000A360626893421CD32368A3600020ECE721
:101DB000C068104B9847236C5B42E2681A44E260AB
:101DC00021688A4202D262681344E360022D0AD17C
:101DD000A36B53B1A36B013BA3630020D5E70020A5
:101DE000D3E70020D1E70020CFE70020CDE700BFF8
:101DF000E9304000254E400030B583B00190446D7D
:101E000074B1A26BE36B9A4215D34FF0800372B6A4
:101E100083F31188BFF36F8FBFF34F8F62B6FEE776
:101E20004FF0800372B683F31188BFF36F8FBFF357
:101E30004F8F62B6FEE7A26B934203D80025284677
:101E400003B030BD0A4601A920460B4B9847054612
:101E5000A36CB3F1FF3F0AD1636A002BEFD004F10A
:101E60002400064B9847002818BF0125E7E7A36C1C
:101E70000133A364E3E700BF711D4000BD2E4000A5
:101E8000026C72B110B50346C4681444C460406863
:101E9000844201D31868D8600846D968014B984736
:101EA00010BD7047254E4000F8B50446224B9847B8
:101EB000A36C002B1BDD214D214F224E0BE0636AEA
:101EC000ABB104F12400B04778B9A36C013BA36423
:101ED000A36C002B0BDD636D002BF0D0002120469E
:101EE000A8470128F1D1B847EFE7B847EDE74FF031
:101EF000FF33A364144B98470F4B9847636C002B38
:101F000014DD236993B104F110060E4D0C4F07E068
:101F1000636C013B6364636C002B07DD23692BB1A9
:101F20003046A8470028F3D0B847F1E74FF0FF3319
:101F30006364054B9847F8BDC11A4000F91D400085
:101F400019304000BD2E40000D1B400038B508B3CD
:101F500004460D461D4B98472268216CE36B03FB3A
:101F600001F3D01860600020A063A2605B1A1344E4
:101F7000E3604FF0FF336364A364FDB923692BB1C1
:101F800004F11000124B984701280ED0114B9847CE
:101F9000012038BD4FF0800372B683F31188BFF380
:101FA0006F8FBFF34F8F62B6FEE74FF080520A4B40
:101FB0001A60BFF34F8FBFF36F8FE7E704F1100094
:101FC000064DA84704F12400A847DFE7C11A4000E6
:101FD000BD2E40000D1B400004ED00E075194000CF
:101FE000F8B550B94FF0800372B683F31188BFF390
:101FF0006F8FBFF34F8F62B6FEE7064617460D465A
:1020000089B101FB00F05930124B98470446E8B9FA
:102010004FF0800372B683F31188BFF36F8FBFF365
:102020004F8F62B6FEE758200A4B984704460028B7
:10203000EED02060E663256401212046064B9847D8
:1020400084F85070002363652046F8BD00F1580302
:102050000360EFE71D1D40004D1F40002DE9F04FCC
:1020600085B00192B8B1044601B3022B2CD01D46B5
:102070008846664B9847002834D1019B002B38D006
:102080004FF0800372B683F31188BFF36F8FBFF3F5
:102090004F8F62B6FEE74FF0800372B683F311886C
:1020A000BFF36F8FBFF34F8F62B6FEE7026C002A5B
:1020B000DBD04FF0800372B683F31188BFF36F8FCC
:1020C000BFF34F8F62B6FEE7E26B012ACFD04FF02D
:1020D000800372B683F31188BFF36F8FBFF34F8F06
:1020E00062B6FEE700274A4EDFF850A1DFF82C91D8
:1020F00042E00027F7E72A4641462046454B9847ED
:10210000636D9BB129462046434B9847012807D170
:102110004FF08052414B1A60BFF34F8FBFF36F8F68
:102120003F4B9847012005B0BDE8F08F636A73B15B
:1021300004F124003B4B98470128F1D14FF0805225
:10214000364B1A60BFF34F8FBFF36F8FE8E700285D
:10215000E6D04FF08052314B1A60BFF34F8FBFF380
:102160006F8FDDE72E4B98470020DCE720462E4B93
:1021700098472E4B98470127B047A26BE36B9A42D2
:10218000B9D3022DB7D0019B002BEBD00FB902A819
:10219000D047234B9847264B9847B047636CB3F121
:1021A000FF3F01D100236364A36CB3F1FF3F01D172
:1021B0000023A3641A4B984701A902A81D4B984716
:1021C000E0B9B047D4F838B0E76B154B9847BB453A
:1021D000CCD1019904F11000174B98472046124BBF
:1021E0009847124B98470028C5D14FF08053C9F843
:1021F0000030BFF34F8FBFF36F8FBCE720460A4B11
:1022000098470A4B984700208DE700BF25304000D3
:10221000C11A4000711D4000F91D400004ED00E0AE
:102220000D1B4000BD2E4000A91E4000A12A400009
:1022300039294000852F4000B92D4000552F40001E
:1022400070B506465820114B98470446D8B1002572
:10225000456005608560C56085630123C3630564CF
:102260004FF0FF334364836480F85060456510305D
:10227000074EB04704F12400B0472B462A462946B2
:102280002046044DA847204670BD00BF1D1D4000DC
:10229000751940005D204000002836D02DE9F0413E
:1022A000044600293CD0022B48D01E4615468846DD
:1022B000354B9847EFF311874FF0800372B683F3E5
:1022C0001188BFF36F8FBFF34F8F62B6A26BE36BC2
:1022D0009A4201D3022E4FD13246414620462B4B23
:1022E0009847A36CB3F1FF3F41D1636D002B33D00E
:1022F00031462046264B9847002D3FD001283DD13E
:10230000286087F31188BDE8F0814FF0800372B632
:1023100083F31188BFF36F8FBFF34F8F62B6FEE771
:10232000006C0028BFD04FF0800372B683F3118891
:10233000BFF36F8FBFF34F8F62B6FEE7E06B0128EC
:10234000B3D04FF0800372B683F31188BFF36F8F61
:10235000BFF34F8F62B6FEE7636A8BB104F12400CE
:102360000C4B984775B168B101202860C9E7A36C90
:102370000133A3640120C4E70020C2E70120C0E7C5
:102380000120BEE70120BCE7B91C4000711D4000E0
:10239000F91D4000BD2E40002DE9F04784B00192A8
:1023A00098B10446E1B198460F46614B984728BB67
:1023B000019B53B34FF0800372B683F31188BFF3D0
:1023C0006F8FBFF34F8F62B6FEE74FF0800372B698
:1023D00083F31188BFF36F8FBFF34F8F62B6FEE7B1
:1023E000026C002ADFD04FF0800372B683F31188AD
:1023F000BFF36F8FBFF34F8F62B6FEE700264D4DE0
:10240000DFF860A1DFF83C914BE00026F7E7E568D4
:1024100039462046484B9847B8F1000F1DD1A36BB1
:10242000013BA363236813B9444B98476060236959
:102430006BB104F11000424B9847012807D14FF0CF
:102440008052404B1A60BFF34F8FBFF36F8F3E4BEC
:102450009847012004B0BDE8F087E560636A002B6F
:10246000F5D004F12400364B98470028EFD04FF008
:102470008052344B1A60BFF34F8FBFF36F8FE6E784
:10248000314B98470020E5E7A84760682F4B9847F5
:102490002D4B984730E020462D4B98472D4B9847C1
:1024A0000126A847A36B002BB1D1019B002BE7D0DD
:1024B0000EB902A8D047244B9847274B9847A84706
:1024C000636CB3F1FF3F01D100236364A36CB3F1EC
:1024D000FF3F01D10023A3641B4B984701A902A829
:1024E0001E4B9847E8B9A847A66B174B9847002E94
:1024F000D1D12368002BC7D0019904F12400184BD7
:1025000098472046124B9847124B98470028C7D14E
:102510004FF08053C9F80030BFF34F8FBFF36F8F78
:10252000BEE720460A4B98470A4B9847002091E7A0
:1025300025304000C11A4000811E4000A5314000F6
:10254000BD2E400004ED00E00D1B40004530400072
:10255000A91E4000A12A400039294000852F4000D3
:10256000B92D4000552F400010B40B4B1B6853B1E0
:102570000123094C54F8332032B10133082BF9D12F
:102580005DF8044B70470023034A42F8331002EB16
:10259000C3035860F4E700BF640E402070B50446E2
:1025A0000D4616460F4B9847636CB3F1FF3F0BD0B7
:1025B000A36CB3F1FF3F0AD00B4B9847A36B4BB111
:1025C00020460A4B984770BD00236364F0E7002360
:1025D000A364F1E73246294604F12400044B9847EE
:1025E000EEE700BFC11A40000D1B4000A91E4000CD
:1025F0003D2E4000084B1B681B683BB1064B1B6817
:10260000DB68DB685A68054B1A6070474FF0FF3291
:10261000024B1A60704700BF680C4020140D402028
:1026200010B50F4B1B6858600E4B1B6898420ED3B9
:1026300004460D4B18680A4B196804310B4B984738
:102640000B4B1B689C4201D2094B1C6010BD094B0F
:102650001868034B19680431044B984710BD00BF3C
:10266000640C40205C0D4020680C4020A9194000FB
:10267000140D40206C0C40202DE9F04F83B00C9DD0
:10268000DDF834A00E9E60B1042D15D94FF0800303
:1026900072B683F31188BFF36F8FBFF34F8F62B6AB
:1026A000FEE74FF0800372B683F31188BFF36F8F9C
:1026B000BFF34F8F62B6FEE70190984691460F46F2
:1026C00036B99000624B98470646002800F09E807D
:1026D00058205F4B98470446002800F0948006631A
:1026E0004FEA8902A52130465A4B98476FF0404681
:1026F0004E44236B03EB860323F007063B7884F8F4
:1027000034303B78002B40F08480002784F83D7003
:10271000E562A564E76404F104094846DFF884B182
:10272000D84704F11800D8472461C5F10503A36117
:102730006462276584F85470424601993046464BDE
:1027400098472060BAF1000F01D0CAF80040434B0F
:102750009847434A136801331360424B1B68002BB0
:1027600066D1404B1C601368012B21D13E4F384687
:102770003E4EB04707F11400B04707F12800B047BC
:1027800007F13C00B04707F15000B047DFF818816F
:102790004046B047364F3846B0473648B0473648CF
:1027A000B0473648B047364BC3F80080354B1F6002
:1027B000354A1368013313602364E06A334A1168B1
:1027C000012383400B43136000EB80004946264BF6
:1027D00003EB80002E4B98472E4B98472E4B1B68DF
:1027E000002B31D01F4B1B68DB6A9D422ED94FF066
:1027F00080522A4B1A60BFF34F8FBFF36F8F0120B7
:1028000003B0BDE8F08F3046254B98474FF0FF30BE
:10281000F6E73B4604F134020937597802F8011F04
:1028200013F8011F00293FF470AFBB42F5D16CE7EC
:10283000194B1B68002BBBD10A4B1B68DB6A9D42FE
:10284000B6D3084B1C60B3E70120D9E70120D7E7D6
:102850001D1D4000594F4000751A4000C11A40002C
:10286000D40C4020640C4020700C402075194000AE
:10287000000D40201C0D4020480D4020340D40200C
:10288000680C40206C0C4020E00C4020E80C4020FC
:10289000911940000D1B4000300D402004ED00E078
:1028A0004D1D40008B194000EC0C402010B584B049
:1028B0000023039302930193009382221649174841
:1028C000174CA04701280BD020BB4FF0800372B6F5
:1028D00083F31188BFF36F8FBFF34F8F62B6FEE7AC
:1028E000104B98470128EFD14FF0800372B683F365
:1028F0001188BFF36F8FBFF34F8F62B64FF0FF3277
:10290000094B1A600122094B1A600022084B1A6019
:10291000084B984704B010BDC8744000512C4000CB
:102920007926400091324000140D4020300D4020A7
:102930005C0D4020F51B4000024A13680133136010
:10294000704700BFDC0C4020014B1868704700BF87
:102950005C0D40202DE9F047424B1B68002B78D1DD
:10296000414B1A6801321A601E68D6B93F4B1B688A
:102970001B6853B14FF0800372B683F31188BFF325
:102980006F8FBFF34F8F62B6FEE7384A1168384B3E
:10299000186810601960374A136801331360364BAA
:1029A0009847364B1B689E4218D20024344B1B6854
:1029B000DB6A03EB8303334A52F82330022B28BF30
:1029C0000124314B1B680BB9304B9847304B1B68C7
:1029D000002B0CBF20460120BDE8F0870024DFF863
:1029E0008C90DFF8B8802B4F1FE04FF0FF32234B65
:1029F0001A60DBE7214A1360D8E705F11800C047E9
:102A0000E86A3A680123834013433B6000EB80008F
:102A100051461C4B03EB80001F4B9847184B1B681B
:102A2000EA6ADB6A9A4228BF0124D9F800301B68A1
:102A3000002BDAD0D9F80030DB68DD686B689E4285
:102A4000D8D305F1040A5046C047AB6A002BD4D155
:102A5000D6E70D4A1368013313600C4B98470024E6
:102A6000B4E700BFDC0C40205C0D4020680C402027
:102A70006C0C4020180D4020F5254000140D40201E
:102A8000640C4020700C4020D80C4020F93A4000E3
:102A9000600D4020E80C402091194000DD194000F5
:102AA0002DE9F843384B1B6853B94FF0800372B6D9
:102AB00083F31188BFF36F8FBFF34F8F62B6FEE7CA
:102AC000324B9847304B1A68013A1A601B68002B4A
:102AD00055D12F4B1B68002B32D100242D4B98472A
:102AE0002046BDE8F883FB68DC6804F11800B047B5
:102AF00004F104084046B047E06A2A680123834095
:102B000013432B6000EB8000414609EB8000224B11
:102B10009847224B1B68E26ADB6A9A420CD23B68F8
:102B2000002BE0D11E4B1B68DBB11D4B1B68C3B1F2
:102B30001C4E1D4D1A4C0EE001221B4B1A60EEE795
:102B40001A4F1B4E1B4DDFF87490E8E72368013BDA
:102B5000236023682BB1B0470028F7D001232B60F6
:102B6000F4E7114B1B68012B0BD14FF08052124B35
:102B70001A60BFF34F8FBFF36F8F0124AEE70024BD
:102B8000ACE70024AAE700BFDC0C4020C11A4000DB
:102B9000D40C40200D1B400091194000640C4020D3
:102BA000D80C402055294000600D40201C0D4020CD
:102BB000DD194000E80C402004ED00E0700C4020DE
:102BC00010B5002829D00446184B1B6853B14FF0AC
:102BD000800372B683F31188BFF36F8FBFF34F8FFB
:102BE00062B6FEE7124B9847124B1B681C44124B0F
:102BF00018680430114B984748B90F4B1A681049B0
:102C00000B68D06A0122824023EA02030B6020464F
:102C10000C4B98470C4B984738B94FF080520B4BF0
:102C20001A60BFF34F8FBFF36F8F10BDDC0C4020D5
:102C3000392940005C0D4020640C4020DD19400023
:102C4000E80C402021264000A12A400004ED00E0CD
:102C500080B5DFF88880194EDFF884902AE0184BA1
:102C60001B68012B1ED82B68002BF8D0C047346896
:102C7000B847002CF7D0134B9847F368DC68201D49
:102C8000114B9847114A1368013B13602B68013BB5
:102C90002B600F4B9847206BDFF848A0D0472046A9
:102CA000D047E0E74FF08053C9F80030BFF34F8FB3
:102CB000BFF36F8F074D084FD5E700BF480D402089
:102CC000700C4020C11A4000DD194000D40C402097
:102CD0000D1B4000E40C4020A12A4000392940008F
:102CE00004ED00E04D1D40002D4B1B68002B2CD146
:102CF00010B500222B4B1A602B4B1B681B6B1A68FC
:102D0000B2F1A53F03D15A68B2F1A53F21D0264BBD
:102D1000186819683431254B9847254B1B68B3FA5E
:102D200083F3DBB2C3F11F0303EB8301214A52F8A3
:102D30002120BAB94FF0800372B683F31188BFF334
:102D40006F8FBFF34F8F62B6FEE70122154B1A60FB
:102D500070479A68B2F1A53FD9D1DB68B3F1A53FBE
:102D6000D5D1DAE7134A9900C81802EB800044680D
:102D700064684460194402460832944209D003EB67
:102D800083030C4A02EB83035B68DA68064B1A6024
:102D900010BD6068074A02EB81025060EFE700BF98
:102DA000DC0C4020600D4020640C4020E13A4000E3
:102DB000E80C4020700C402038B5E0B10C46174DAF
:102DC00029681831164B984728680430154B9847E6
:102DD00040B92A6814490B68D06A0122824023EA6C
:102DE00002030B60B4F1FF3F10D0104B1868204471
:102DF0000F4B984738BD4FF0800372B683F31188AC
:102E0000BFF36F8FBFF34F8F62B6FEE7034B1968B6
:102E100004310848084B984738BD00BF640C402077
:102E2000A9194000DD194000E80C40205C0D40204D
:102E300021264000340D402091194000E8B170B5C2
:102E400015460C46164E31681831164B98473068B7
:102E50000430154B984740B9326814490B68D06A62
:102E60000122824023EA02030B60012D10D0104B97
:102E7000186820440F4B984770BD4FF0800372B61E
:102E800083F31188BFF36F8FBFF34F8F62B6FEE7F6
:102E9000034B196804310848024B984770BD00BFC6
:102EA000640C402091194000DD194000E80C4020DE
:102EB0005C0D402021264000340D402038B5C36809
:102EC000DC6824B304F1180528461A4B98471A4BBE
:102ED0001B683BBB251D2846164B9847E06A174ADE
:102EE0001168012383400B43136000EB80002946E7
:102EF000134B03EB8000134B9847134B1B68E26A9C
:102F0000DB6A9A4213D90120104B186038BD4FF08C
:102F1000800372B683F31188BFF36F8FBFF34F8FB7
:102F200062B6FEE729460A48064B9847E5E70020C7
:102F300038BD00BFDD194000DC0C4020E80C40200B
:102F4000700C402091194000640C4020600D40201E
:102F50001C0D402030B1094A12680260084A12680C
:102F6000426070474FF0800372B683F31188BFF35D
:102F70006F8FBFF34F8F62B6FEE700BF180D402082
:102F80005C0D402038B5C0B1044609B30D461D4B59
:102F900098471D4B1A682B68B3F1FF3F2ED01B4991
:102FA00009682068884202D061688A4228D2616834
:102FB000501A834217D801241CE04FF0800372B6E8
:102FC00083F31188BFF36F8FBFF34F8F62B6FEE7B5
:102FD0004FF0800372B683F31188BFF36F8FBFF396
:102FE0004F8F62B6FEE79B1A0B442B602046084BBE
:102FF00098470024074B9847204638BD0024F9E73E
:103000000124F7E7C11A40005C0D4020180D402054
:10301000552F40000D1B40000122014B1A607047E4
:10302000600D4020054B1B6833B1054B1B68002B1E
:103030000CBF02200020704701207047300D402057
:10304000DC0C4020002844D038B50446C26A21492F
:103050000968C96A8A4214D28169002905DB1D49C1
:103060000968C96AC1F10501816102EB82021A494E
:1030700001EB82026169914204D0164A1268D26A59
:10308000E26238BD251D2846144B984770B9E36AA3
:1030900003EB8301104A52F821203AB91048026824
:1030A000012101FA03F322EA03030360094B1B68C1
:1030B000D86AE0620A4A1168012383400B43136017
:1030C00000EB80002946044B03EB8000054B98473A
:1030D00038BD7047640C4020700C4020DD19400062
:1030E000E80C40209119400000284DD038B5044626
:1030F000274A126890420AD04FF0800372B683F3D9
:103100001188BFF36F8FBFF34F8F62B6FEE7C26CBB
:1031100052B94FF0800372B683F31188BFF36F8FFB
:10312000BFF34F8F62B6FEE7013AC264C06AA16C7A
:1031300088422BD052BB251D2846164B984768B9AC
:10314000E16A01EB8102144B53F8223033B9134882
:10315000036801228A4023EA02030360A06CE06254
:10316000C0F10503A3610D4A1168012404FA00F3BC
:103170000B43136000EB80002946074B03EB8000F4
:10318000074B9847204638BD00207047002038BDC7
:10319000640C4020DD194000700C4020E80C4020F9
:1031A00091194000054B1B6823B1044B1A68D36C7E
:1031B0000133D364014B1868704700BF640C402092
:1031C00008B54160006191420CD8D21A83699A42D5
:1031D00001D3012008BD011D094B1868094B984710
:1031E000002008BD9A4203D2994201D3012008BDB4
:1031F000011D054B1868034B9847002008BD00BF10
:10320000680D4020A9194000640D402070B5154B91
:103210009847154B1B6813B1144B984770BD144D5C
:103220002846144EB047144C2046B047134B1D603F
:10323000134B1C60002210210520124B98470A4BAB
:10324000186018B11049114B9847E5E74FF080031B
:1032500072B683F31188BFF36F8FBFF34F8F62B6DF
:10326000FEE700BFC11A4000980D40200D1B400032
:103270006C0D402075194000800D4020640D4020E9
:10328000680D4020E11F4000D074400069254000D7
:1032900010B584B00F4B98470F4B1B6873B10023D8
:1032A000039302930193042200924FF482720B491C
:1032B0000B480C4CA04708B104B010BD4FF0800380
:1032C00072B683F31188BFF36F8FBFF34F8F62B66F
:1032D000FEE700BF0D324000980D4020D87440003A
:1032E0001134400079264000D8B130B585B015467C
:1032F0000446154A106820B31A46009101950294BD
:10330000052919DC114B984702284FF000030CBF28
:10331000089A1A4669460C4800680D4CA04705B04B
:1033200030BD4FF0800372B683F31188BFF36F8F07
:10333000BFF34F8F62B6FEE700236946054CA047F6
:10334000EDE70020EBE700BF980D4020253040005E
:103350005D204000992240002DE9F04782B0804670
:10336000244B98470746244B1B6898421BD30023E5
:10337000C8F80030204B1F60384602B0BDE8F08727
:10338000002100910B46524620461C4CA04760B9D4
:103390004FF0800372B683F31188BFF36F8FBFF3D2
:1033A0004F8F62B6FEE7164D164E2B681A68C2B1F3
:1033B000DB68D3F800A0DC6804F104094846B04794
:1033C000636A20469847E369012BEED1A369534411
:1033D0009A45D5D263602461494628680A4B9847CC
:1033E000E3E70A4A10680649086013600123C8F839
:1033F0000030BFE749294000940D4020E9324000E9
:10340000640D4020DD194000A9194000680D4020DE
:103410002DE9F04788B0754E754FDFF8FC91DFF865
:10342000FC8133681A68002A00F0CE80DB681C68D3
:10343000B84704A86F4B98470546049B002B44D11E
:10344000A04212D20022611B6B4B18686B4B98474D
:103450006B4B984700283AD14FF08053C9F80030A1
:10346000BFF34F8FBFF36F8F31E0654B98473368E1
:10347000DB68D3F80CA00AF10400C047DAF81C306E
:10348000012B04D0DAF82430504698471FE0DAF8D0
:10349000181023462A46214450465A4DA847012871
:1034A000F0D1002100910B4622465046564CA047D1
:1034B0000028E7D14FF0800372B683F31188BFF381
:1034C0006F8FBFF34F8F62B6FEE74D4B98474A4D63
:1034D0004E4C06E007990698059B9847049B002BE5
:1034E00009DA00231A4604A92868A047002898D0C2
:1034F000049B002BEEDBDDF818A0DAF8143013B1D2
:103500000AF10400C04703A83A4B9847049B092BD3
:10351000E7D801A252F823F0413540004135400080
:1035200041354000E334400095354000C13540004E
:103530004135400041354000E334400095354000BE
:10354000059CDAF8181023460246214450462D4CBB
:10355000A0470128BCD1DAF8243050469847DAF861
:103560001C30012BB4D1DAF81820002100910B4651
:10357000059802445046244CA0470028A8D14FF09B
:10358000800372B683F31188BFF36F8FBFF34F8F41
:1035900062B6FEE70599CAF8181031B10346024633
:1035A00001445046174CA04792E74FF0800372B693
:1035B00083F31188BFF36F8FBFF34F8F62B6FEE7BF
:1035C0005046134B984783E7B84704A8094B9847E0
:1035D0000546049B002B7FF478AF0E4B1B681A68DE
:1035E000B2FA82F2520900242DE700BF640D402098
:1035F0003929400059334000980D40209D25400056
:10360000A12A4000C1314000E93240009923400026
:103610004D1D4000680D402004ED00E0DD19400024
:1036200010B582B0012300934FF080524FF020512B
:103630000848094B984750B10023019300231A46CC
:10364000694606480068064CA04702B010BD012339
:103650000193F3E700140E400D114000BC0E402012
:103660009922400010B582B0022300934FF000422F
:103670004FF020510848094B984750B1002301935F
:1036800000231A46694606480068064CA04702B067
:1036900010BD01230193F3E700120E400D1140000D
:1036A000BC0E40209922400010B582B00323009345
:1036B0004FF400224FF020510848094B984750B171
:1036C0000023019300231A46694606480068064C09
:1036D000A04702B010BD01230193F3E7000E0E4096
:1036E0000D114000BC0E40209922400010B582B060
:1036F000074A01235366926E019202AA42F8083DDE
:10370000002301A903480068034CA04702B010BD84
:1037100000400640A80E40209922400010B582B01B
:10372000074A00235366926E019202AA012142F8D1
:10373000081D01A903480068034CA04702B010BD52
:1037400000C00340B80E4020992240002DE9F04F00
:1037500093B04FF0000AD346CDF81CA02F4E304D49
:103760005446DFF8D89028E0119B079344E0DDF839
:1037700044B041E02346224621462A480068C84713
:10378000294F23464FF0FF3221463868A847119B46
:103790000493109B03930D9B02930E9B01930F9B2D
:1037A00000930C9B0B9A0A992048DFF89480C0473D
:1037B0002346224621463868C84723464FF47A728A
:1037C00010A93068A8470028F7D009AB00930AABCE
:1037D0000BAA0CA91648174FB8470DAB0EAA0FA994
:1037E0001348154FB847109B012BBDD0022BBED0FC
:1037F000032B08BFDDF844A01BF1000318BF012311
:103800001AF1000218BF0122079911B153EA02010F
:10381000B0D1002BB4D0002AACD1B1E7BC0E40200F
:1038200099234000AC0E4020B40E4020807640002A
:1038300060180E40B1054000C70440005D20400004
:103840007D4840002DE9F0418AB004460D461646F9
:103850009846214B984704A8204B984704A9204636
:103860001F4B9847636823F08F03636003A81D4BC9
:10387000984700238DF80D30B7B203AA3946204689
:10388000194B984767664FF40073E36601A8174B1E
:10389000984701A92046164B9847012342463146D6
:1038A0002046144CA0476BB2002B0EDB124A80213D
:1038B000D1545B0905F01F05012202FA05F50F4AF4
:1038C00042F823500AB0BDE8F08105F00F010C4A20
:1038D0000A4480211176ECE7490440007902400057
:1038E000C9024000A902400035024000B302400076
:1038F00065024000C903400000E400E000E100E090
:10390000FCEC00E000B583B0064B9847FF26064D5F
:10391000064C0096022304220C210846A847C82022
:10392000A047F6E7190B4000AD094000C12B40004D
:10393000F0B583B005460C46002301932A4B98420C
:1039400013D02A4B984218D0294B98421DD0294BAE
:103950009D4222D0284B9D4227D0284B9D422ED0FD
:10396000274B9D4235D003B0F0BD1F46254E214662
:103970003846B0470028FAD1E9E71F46214E2146D4
:103980003846B0470028FAD1E4E71F461D4E2146CD
:103990003846B0470028FAD1DFE71F46194E2146C6
:1039A0003846B0470028FAD1DAE71E46164D01A97D
:1039B0003046A8470028FAD1019B2370D3E71E4662
:1039C000114D01A93046A8470028FAD1019B237068
:1039D000C9E71E460C4D01A93046A8470028FAD178
:1039E000019B2370BFE700BF00080E40000A0E4095
:1039F000001A0E40001C0E400040024000800240B1
:103A000000C002409F154000AB16400070B50C4648
:103A10002A4B984213D02A4B984219D0294B9842EE
:103A20001FD0294B984225D0284B98422BD0284BA9
:103A3000984231D0274B984237D0002070BD1E46A7
:103A4000254D21463046A8470028FAD1012070BDF7
:103A50001E46214D21463046A8470028FAD10120B4
:103A600070BD1E461C4D21463046A8470028FAD19D
:103A7000012070BD1E46184D21463046A84700283B
:103A8000FAD1012070BD1E46144D21463046A8478C
:103A90000028FAD1012070BD1E46104D2146304647
:103AA000A8470028FAD1012070BD1E460B4D2146C3
:103AB0003046A8470028FAD1012070BD00080E400A
:103AC000000A0E40001A0E40001C0E40004002404A
:103AD0000080024000C002408D1540009516400055
:103AE00008B50A4601460248024B9847FEE700BF68
:103AF000B07640007D48400070474FF0800372B6BA
:103B000083F31188BFF36F8FBFF34F8F62B6FEE769
:103B100000B583B001210848084B98470190019BEC
:103B2000074A012353610223136002F520325361D7
:103B3000136003B05DF804FB00C00040690840005A
:103B400000C0034038B50C4C20460C4B984704216C
:103B500020460B4DA84702212046A84701212046B8
:103B6000A84708212046A84710212046A847202121
:103B70002046A84738BD00BF60180E40DD06400053
:103B8000E106400038B504460D46064B984720B97B
:103B900029462046044B984738BD29462046034B0A
:103BA000984738BDA9124000051140000911400096
:103BB00000B583B001210548054B984701900121CC
:103BC0000448054B984703B05DF804FB0000014032
:103BD00069084000000E0E40853B400000B583B0F0
:103BE00002210648064B984701904FF08041054856
:103BF000054B984703B05DF804FB00BF00C00040D0
:103C00006908400000120E40853B40002DE9F0435A
:103C100085B006460C461746984608461C4B984702
:103C20001C4D009502AB03AA29464046DFF8809060
:103C3000C847029A42F4804239463046164B9847AC
:103C4000039AB5FBF2F2B2FBF8F239463046134B59
:103C5000984763B2002B13DB114A8021D1545B09D2
:103C600004F01F04012202FA04F40E4A42F8234031
:103C70001022394630460C4B984705B0BDE8F0831A
:103C800004F00F01094A0A4480211176E7E700BFDA
:103C90003915400000A3E1112F08400059084000E9
:103CA00000E400E000E100E061084000FCEC00E01E
:103CB000710840002DE980488DB04E4D4E4F91E087
:103CC00005AB009306AB07AA08A93846C84709AB5D
:103CD0000AAA0BA93846DFF848A1D047DFF844A16B
:103CE00023464FF0FF322146DAF80000A847099B2F
:103CF00002930A9B01930B9B0093089B079A0699DA
:103D00003E48DFF824B1D847234622462146DAF858
:103D10000000DFF818A1D047052301221B213848F5
:103D2000DFF80CA1D04701213548364B98470FE00A
:103D300023463246214634480068A847002849D126
:103D4000234632462146D8F80000A8470028B7D1BC
:103D50002346324621462D480068A8470028E7D070
:103D600005AB009306AB07AA08A93846C84709ABBC
:103D70000AAA0BA93846DFF8A8A0D047DFF8A4A00C
:103D800023464FF0FF322146DAF80000A847099B8E
:103D900002930A9B01930B9B0093089B079A069939
:103DA0001B48DFF884B0D847234622462146DAF87C
:103DB0000000DFF878A0D047DFF878A005230222C2
:103DC00019215046DFF868B0D847022150460D4B04
:103DD0009847ADE701210A480E4B984701210E484C
:103DE0000E4B9847DFF8508000240A26DFF84C90ED
:103DF000A6E700BF9923400060180E4020764000DF
:103E00000000014049084000B00E4020AC0E4020A8
:103E10005076400051084000000E0E400511400051
:103E2000C7044000B40E40207D4840005D204000A3
:103E30000D3C400000C00040A40E4020B1054000F1
:103E40002DE9F04F8DB03A4B0122282139483A4CE8
:103E5000A0473A4C01231A4618212046384DA8475E
:103E600001212046374B98474FF0000AD046364D87
:103E70005446DFF8FCB0354E23464FF47A7204A95D
:103E80003068A8470028F7D005AB009306AB07AA17
:103E900008A958462E4EB04709AB0AAA0BA95846A6
:103EA0002C4EB0472C4E23464FF0FF32214630684F
:103EB000A847049B0393099B02930A9B01930B9BC6
:103EC0000093089B079A06992448254FB847234634
:103ED000224621463068234EB04740F6B833049A54
:103EE0009A4204D908F10108B8F1050F15D0049BD6
:103EF000B3F57A7FBFD2B9F1000FBCD00AF1010A45
:103F0000BAF10A0FB7D12346224621461648006867
:103F1000144EB047A146A246ADE7234622462146AD
:103F200012480068B0474FF001094FF00008DEE783
:103F3000ED364000004006404538400000C00040DB
:103F40000D3C40004908400099234000A80E402045
:103F5000B1054000C7044000B40E4020F075400099
:103F60007D4840005D204000B00E4020A40E40205F
:103F700060180E402DE9F04F8DB03A4B00221D2104
:103F800039483A4CA0473A4C01231A46182120469A
:103F9000384DA84701212046374B98474FF0000A7B
:103FA000D046364D5446DFF8FCB0354E23464FF42C
:103FB0007A7204A93068A8470028F7D005AB0093AF
:103FC00006AB07AA08A958462E4EB04709AB0AAA65
:103FD0000BA958462C4EB0472C4E23464FF0FF32CB
:103FE00021463068A847049B0393099B02930A9BD0
:103FF00001930B9B0093089B079A06992448254F31
:10400000B8472346224621463068234EB04740F643
:10401000B833049A9A4204D908F10108B8F1050F9F
:1040200015D0049BB3F57A7FBFD2B9F1000FBCD095
:104030000AF1010ABAF10A0FB7D1234622462146F6
:1040400016480068144EB047A146A246ADE7234685
:104050002246214612480068B0474FF001094FF050
:104060000008DEE71D37400000C00340453840002F
:1040700000C000400D3C400049084000992340002A
:10408000B80E4020B1054000C7044000B40E4020E7
:10409000C47540007D4840005D204000B00E4020C7
:1040A000A40E402060180E4082B070B582B0054664
:1040B0000C4606A981E80C0002201D4B9847002100
:1040C00028461C4B9847099B0093089B079A069922
:1040D0002846194EB0470C9B0B9A0A992846174E52
:1040E000B04762B2E4B204F01F0101238B405609CD
:1040F000134800EB8601C1F88030C1F88031002AF6
:104100000FDB0F491144802281F8002340F826304C
:104110000D9928460B4B984702B0BDE8704002B09D
:10412000704704F00F04084A80211155EEE700BFE4
:1041300039154000AD04400025064000210540002F
:1041400000E100E0C304400014ED00E0F0B583B0EE
:104150000A203C4CA0470C20A0470B20A047102071
:10416000A0470C20A0470A20A047374D002301227A
:104170004FF060512846354CA047354E00234FF094
:1041800080424FF060513046A047002304224FF098
:1041900060513048A047304F09234FF080524FF014
:1041A00020513846A04709234FF000424FF02051DC
:1041B0003046A04709234FF400224FF020512846F3
:1041C000A047264B009340234FF0805210213846E1
:1041D000234CA047234B009340234FF000420C2177
:1041E0003046A047204B009340234FF400220A2181
:1041F0002846A0474FF0805138461C4CA0474FF04E
:1042000000413046A0474FF400212846A0473846D9
:10421000174CA0473046A0472846A047154B4FF4FF
:1042200080321A60802283F810234FF48051196085
:1042300083F80C234FF48061196083F80A2303B0DC
:10424000F0BD00BF39154000000E0E4019124000AD
:1042500000120E4000100E4000140E4021364000A7
:104260004513400065364000A9364000E712400083
:10427000EB12400000E100E000B595B07A4B9847A2
:104280007A4B98477A4C7B4B1C607B4A7B4B1A607D
:104290007B4A7C4B1A604FF4E1330793C0230893A9
:1042A0004FF40063099300260A960B960E20764B76
:1042B0009847764A07A92046754B98472046754B84
:1042C00098472046744B9847744D2B683146986840
:1042D000734CA0472B6831465868A0472B6831467D
:1042E0009868A0476F4B98470DAC6F4D0FCD0FC42A
:1042F00095E8070084E80700062305936C460FAD98
:104300000FCD0FC42B6823600DAB0CCB0221674887
:10431000674CA047032231460120664B9847664B05
:104320001860002800F08880032200210120614BE2
:104330009847624B1860002800F082800322002119
:1043400001205C4B98475E4B186000287CD0012010
:104350005C4B98475C4B1860002204216420554B4D
:1043600098475A4B1860002872D00022042164201C
:10437000504B9847564B1860544B1B68002B6BD022
:104380000022082164204B4B9847524B18600028AC
:1043900066D0002303930293019300934FF4C0620D
:1043A0004D494E484E4CA047012802D04D484E4B37
:1043B0009847002303930293019300934FF42062E4
:1043C0004A494B48464CA047012802D04948464B31
:1043D0009847002303930293019300934FF42062C4
:1043E000424945483E4CA047012802D041483E4B37
:1043F0009847002303930293019300934FF42062A4
:104400003E493F48364CA047012802D03948364B38
:104410009847002303930293019300934FF4206283
:10442000384939482E4CA047012802D031482E4B3C
:104430009847364B9847FEE735482B4B984773E72C
:104440003348294B984779E73148274B98477EE70F
:104450003048254B984788E72E48234B98478FE7ED
:104460002D48214B984794E7710E40006D0F400096
:1044700000800240600E40200D3A40005C0E40205B
:1044800031394000580E40203915400080D1F008E5
:1044900035164000891640008F1640001400402059
:1044A000315040004D414000E074400060180E4023
:1044B000A9404000E11F4000A40E4020B00E402063
:1044C000AC0E402041224000B40E4020B80E4020E7
:1044D000A80E4020BC0E4020647540000539400005
:1044E000792640006C7540007D4840008C75400086
:1044F000753F400090754000413E4000B47540005B
:104500004D374000BC754000B53C4000AD28400030
:10451000FC744000187540003C75400053B94AB91E
:10452000002908BF00281CBF4FF0FF314FF0FF30BB
:1045300000F07AB9ADF1080C6DE904CE00F006F890
:10454000DDF804E0DDE9022304B070472DE9F0470F
:104550008C460D460446089E002B51D18A421746D0
:104560006DD9B2FA82FEBEF1000F0BD0CEF1200C55
:1045700001FA0EF520FA0CFC02FA0EF74CEA050CD3
:1045800000FA0EF44FEA174A250CBCFBFAF81FFAA2
:1045900087F90AFB18CC45EA0C4508FB09F3AB4246
:1045A0000AD9ED1908F1FF3280F02381AB4240F2C5
:1045B0002081A8F102083D44ED1AA4B2B5FBFAF03F
:1045C0000AFB105544EA054400FB09F9A14509D945
:1045D000E41900F1FF3380F00A81A14540F2078120
:1045E00002383C44A4EB090440EA08400021002EB4
:1045F00061D024FA0EF4002334607360BDE8F087C4
:104600008B4207D9002E54D0002186E821000846AD
:10461000BDE8F087B3FA83F1002940F08E80AB4209
:1046200002D3824200F2FA80841A65EB030501206E
:10463000AC46002E3FD086E81010BDE8F08712B9D6
:104640000127B7FBF2F7B7FA87FEBEF1000F34D1AE
:10465000EB1B3A0C1FFA87FC0121B3FBF2F8250C87
:1046600002FB183345EA03450CFB08F3AB4207D9BC
:10467000ED1908F1FF3002D2AB4200F2D180804642
:10468000ED1AA3B2B5FBF2F002FB105543EA054464
:104690000CFB00FCA44507D9E41900F1FF3302D25A
:1046A000A44500F2B8801846A4EB0C0440EA084088
:1046B0009DE731463046BDE8F087CEF1200405FA8B
:1046C0000EF307FA0EF720FA04F83A0C25FA04F470
:1046D00048EA0308B4FBF2F14FEA184502FB114423
:1046E0001FFA87FC45EA044501FB0CF3AB4200FAD4
:1046F0000EF409D9ED1901F1FF3080F08A80AB4248
:1047000040F2878002393D44EB1A1FFA88F5B3FB6B
:10471000F2F002FB103345EA034500FB0CF3AB4219
:1047200007D9ED1900F1FF386FD2AB426DD90238CD
:104730003D44EB1A40EA01418FE7C1F1200722FA1C
:1047400007F88B4005FA01F448EA030320FA07FE54
:104750004FEA134CFD404EEA040EB5FBFCF94FEA5C
:104760001E440CFB19551FFA83F844EA054509FB62
:1047700008F4AC4202FA01F200FA01FA08D9ED1885
:1047800009F1FF3043D2AC4241D9A9F102091D44DD
:104790002D1B1FFA8EFEB5FBFCF00CFB10554EEAEC
:1047A000054400FB08F8A04507D9E41800F1FF35DF
:1047B00029D2A04527D902381C4440EA0940A4EB7D
:1047C0000804A0FB02894C45C6464D4615D312D0BD
:1047D00056B1BAEB0E0364EB050404FA07F7CB40BD
:1047E0001F43CC40376074600021BDE8F087184655
:1047F000F8E69046E0E6C245EAD2B8EB020E69EB75
:1048000003050138E4E72846D7E7404691E78146AB
:10481000BEE7014678E702383C4445E7084608E72A
:10482000A8F102083D442BE7704700BF70B50F4E5A
:104830000F4D761BB61018BF002405D0013455F873
:10484000043B9847A642F9D10A4E0B4D761B02F065
:10485000EFFFB61018BF002406D0013455F8043B12
:104860009847A642F9D170BD70BD00BF3C784000AA
:104870003C784000447840003C7840000FB400B5DC
:10488000074983B004AB086853F8042B816801938F
:1048900000F064FD03B05DF804EB04B0704700BFA6
:1048A00014004020024B0146186800F00BB800BF0E
:1048B00014004020024B0146186801F06BBE00BF97
:1048C000140040202DE9F04F01F10B06162E83B0A5
:1048D000054640F29E8036F0070600F1BD80B142E9
:1048E00000F2BA8000F086FBB6F5FC7FC0F0938240
:1048F000730A00F0B880042B00F27981B30903F148
:10490000390003F1380EC300BF4F3B44A3F1080147
:104910005C68A14206D10CE0002A80F2AA80E4681B
:10492000A14206D0636823F003039A1B0F2AF3DD2C
:1049300070463C69DFF8E4E2744500F0AB816368DF
:1049400023F003039A1B0F2A00F39081002AC7F873
:1049500014E0C7F810E080F29D80B3F5007F80F08E
:104960006181DB0803F1010C99107A6857F83C80EB
:10497000C4F8088001238B4007EBCC0113430839AE
:10498000E1607B6047F83C40C8F80C40821001248D
:1049900094409C4200F28B801C4206D120F0030020
:1049A00064001C4200F10400FAD007EBC009CC46B9
:1049B0008046DCF80C309C4507D16DE1002A80F27E
:1049C0007B81DB689C4500F06781596821F0030119
:1049D0008A1B0F2AF2DDD3F80CC0D3F808800093AD
:1049E0009C19284646F0010642F001055E60C8F8B1
:1049F0000CC0CCF808807C613C61C4F80CE0C4F8C1
:104A000008E065605A5000F0FBFA009B03F10804CF
:104A10001EE0102920D800F0EDFA102618230220FD
:104A2000794F3B44A3F108025C68944200F03D8159
:104A30006368E168A66823F00303234428465A68A4
:104A4000F16042F001028E605A6000F0D9FA083439
:104A5000204603B0BDE8F08F00240C2320462B60D5
:104A600003B0BDE8F08F40204FF400734FF03F0ECD
:104A70004AE72344E1685A68A66842F00102F160FF
:104A800028468E605A6000F0BBFA0834204603B016
:104A9000BDE8F08F234428465A6842F001025A606C
:104AA00000F0AEFA0834204603B0BDE8F08FBC68D1
:104AB000636823F00308B04504D3A8EB06030F2B6B
:104AC00000F38580DFF85891504BD9F800201B681F
:104AD0000132334404EB080A00F0558103F580539A
:104AE0000F3323F47F6B2BF00F0B5946284600F051
:104AF0008DFA411C024600F0FC80824500F2F780EE
:104B0000434B19685944196000F04D81D9F80000F1
:104B100001301BBFA2EB0A0A5144C9F800201960FA
:104B200012F0070100F01581C1F10800C1F58051B4
:104B30000244083102EB0B09C9F30B09A1EB090987
:104B4000494628460193009200F060FA431C9DE814
:104B50000C0000F04381801A484440F001001968BD
:104B6000BA604944BC425060196017D0B8F10F0FC9
:104B700040F2FB806068A8F10C0222F0070204EB0F
:104B8000020E00F001004FF0050C10430F2A606088
:104B9000CEF804C0CEF808C000F217811D4BBC68E7
:104BA0001A68914288BF19601B4B1A68914262686B
:104BB00088BF196022F003029642A2EB060301D8D7
:104BC0000F2B04DC284600F01BFA002440E7A21952
:104BD00043F0010346F0010666602846BA60536060
:104BE00000F00EFA0834204603B0BDE8F08F142B15
:104BF00071D9542B00F2A380330B03F16F0003F142
:104C00006E0EC30080E600BF40044020CC0D402063
:104C10009C0D4020C40D4020C80D40204804402079
:104C2000480840205A0A042A5BD9142A00F2AE80B0
:104C300002F15C01C9005B3207EB010C7958ACF161
:104C4000080C8C4500F088804A6822F003029342E9
:104C500073D289688C45F7D1DCF80C207B68E26060
:104C6000C4F808C09460CCF80C408FE6A11946F057
:104C7000010C42F00106C4F804C02846796139618C
:104C8000C1F80CE0C1F808E04E60E25000F0B8F95D
:104C90000834DDE67B6879E608F1010818F0030FB7
:104CA0000CF1080C7FF485AE2DE0DC68A34208BF50
:104CB00002303FF43EAEBBE619441C464A68DB684E
:104CC00054F8086F42F001024A602846F3609E6083
:104CD00000F096F9BCE603F15C0003F15B0EC30043
:104CE00012E69A0902F13901C9003832A4E7BC4240
:104CF00054D0BC68626822F003025DE759F80839B5
:104D0000994540F0868010F0030F00F1FF30F5D197
:104D10007B6823EA04037B6064009C423FF6C7AED5
:104D2000002C3FF4C4AE1C4240467FF43EAE64000B
:104D30001C4200F10400FAD037E68C468CE7B3F54C
:104D4000AA7F15D8F30B03F1780003F1770EC300A7
:104D5000DAE54FF48051EDE67B689210012101FA0B
:104D600002F213437B60624679E70123536029E72F
:104D700040F25452934222D8B30C03F17D0003F168
:104D80007C0EC300C0E503F1100BAEE6542A29D80F
:104D90001A0B02F16F01C9006E324DE7204B196802
:104DA00059441960B2E6CAF30B0000287FF4AEAE96
:104DB00008EB0B03BA6843F001035360EEE67F2073
:104DC0004FF47E734FF07E0E9EE504F108012846F5
:104DD000009301F0DFFB009B1968DFE601204FF034
:104DE0000009BCE6B2F5AA7F05D8DA0B02F178011A
:104DF000C900773220E740F254518A4205D89A0C14
:104E000002F17D01C9007C3216E74FF47E717E22EB
:104E100012E77B6880E7F00806F1080300E600BFB0
:104E20009C0D4020844641EA000313F003036DD13A
:104E3000403A41D351F8043B40F8043B51F8043B5D
:104E400040F8043B51F8043B40F8043B51F8043B64
:104E500040F8043B51F8043B40F8043B51F8043B54
:104E600040F8043B51F8043B40F8043B51F8043B44
:104E700040F8043B51F8043B40F8043B51F8043B34
:104E800040F8043B51F8043B40F8043B51F8043B24
:104E900040F8043B51F8043B40F8043B51F8043B14
:104EA00040F8043B51F8043B40F8043B51F8043B04
:104EB00040F8043B403ABDD2303211D351F8043BA4
:104EC00040F8043B51F8043B40F8043B51F8043BE4
:104ED00040F8043B51F8043B40F8043B103AEDD253
:104EE0000C3205D351F8043B40F8043B043AF9D2A4
:104EF000043208D0D2071CBF11F8013B00F8013B77
:104F000001D30B8803806046704700BF082A13D383
:104F10008B078DD010F003038AD0C3F10403D21A9B
:104F2000DB071CBF11F8013B00F8013B80D331F8CF
:104F3000023B20F8023B7BE7043AD9D3013A11F84F
:104F4000013B00F8013BF9D20B7803704B784370BA
:104F50008B7883706046704770B4860746D0541EC5
:104F6000002A41D0CAB2034602E014F1FF343BD319
:104F700003F8012B9D07F8D1032C2ED9CDB245EAB9
:104F800005250F2C45EA054519D903F110022646DF
:104F9000103E0F2E42F8105C42F80C5C42F8085CA0
:104FA00042F8045C02F11002F2D8A4F1100222F0DF
:104FB0000F0204F00F041032032C13440DD91E46C7
:104FC0002246043A032A46F8045BFAD8221F22F04C
:104FD00003020432134404F003042CB1C9B21C448C
:104FE00003F8011B9C42FBD170BC7047144603467A
:104FF000C2E700BF014801F067BD00BFD00E4020EE
:10500000014801F063BD00BFD00E402038B5074C09
:105010000023054608462360FCF784FC431C00D0AF
:1050200038BD2368002BFBD02B6038BDE40E402038
:1050300000290CBF022200224FF4806300F000B868
:105040002DE9F043614C256883B004460F46904635
:105050001E4615B1AB6B002B64D0B8F1020F06D021
:10506000B8F1010F00F29F80002EC0F29C80636EA9
:10507000D80734D52146284601F00EF9216B41B1FD
:1050800004F14003994202D0284601F083FA00233C
:105090002363B4F90C300022A26162601A063AD48C
:1050A00023F44A6323F00303B8F1020FA3811DD058
:1050B00001AB6A462146284601F00AFDA389184340
:1050C000A081002E32D1009E3046FFF7EBFB074651
:1050D00000286BD0A38943F08003A38128E0A38933
:1050E0009905C7D4A06D01F0EFFCC3E70025616E00
:1050F000002604F1430243F002030120A660CE071C
:10510000A38122602261606101D498053ED52846C2
:1051100003B0BDE8F0832169284601F03BFAB4F9F9
:105120000C30BDE7284601F00FF996E7002FCBD0F1
:10513000AB6B002B33D0009BB4F90C2027609E4250
:105140001CBF42F40062A281B8F1010F04BF42F01B
:105150000102A28192B212F00803276166610ED0AB
:10516000D1071AD5656E7642002315F00105A661B8
:10517000A36009D00025284603B0BDE8F083A360F2
:10518000656E15F00105F5D19305C0D4A06D01F051
:105190009DFC284603B0BDE8F083A660F0E72846F2
:1051A00001F0D2F8C7E74FF0FF35B0E7DDF8009027
:1051B000B14504D04846FFF775FB074620B9B4F95E
:1051C0000C304FF0FF3592E74E4683E71400402045
:1051D00000000000000000000000000000000000CF
:1051E00000000000000000000000000000000000BF
:1051F00000000000000000000000000000000000AF
:1052000090F800F06DE9024520F007016FF0000C06
:1052100010F0070491F820F040F049804FF00004AE
:105220006FF00700D1E9002391F840F000F1080089
:1052300082FA4CF2A4FA8CF283FA4CF3A2FA8CF3C1
:105240004BBBD1E9022382FA4CF200F10800A4FA28
:105250008CF283FA4CF3A2FA8CF3E3B9D1E904237C
:1052600082FA4CF200F10800A4FA8CF283FA4CF3B3
:10527000A2FA8CF37BB9D1E9062301F1200182FA6D
:105280004CF200F10800A4FA8CF283FA4CF3A2FA73
:105290008CF3002BC6D0002A04BF04301A4612BA81
:1052A000B2FA82F2FDE8024500EBD2007047D1E984
:1052B000002304F00305C4F100004FEAC50514F013
:1052C000040F91F840F00CFA05F562EA05021CBFE4
:1052D00063EA050362464FF00004A9E72DE9F84FA1
:1052E0004B6E9C0493462FD59368126853B30E46B9
:1052F000074602F1080919E920045FEA9A0817D065
:10530000043D002401E0A04510D0324655F8041FAA
:10531000384601F0BBF8431C04F10104F3D100232B
:10532000CBF80830CBF80430BDE8F88FDBF8083054
:105330002AF0030AA3EB0A03CBF8083009F10809A5
:10534000002BD8D10020EAE701F00AFA0023CBF8BD
:105350000830CBF80430BDE8F88F00BF2DE9F04FDE
:10536000ADB01D468B4690460793069018B1836BEF
:10537000002B00F0F380DBF86430BBF90C00DF0792
:1053800081B202D48E0540F1FC808C040AD4DBF893
:10539000643040F4005123F40053ABF80C10CBF808
:1053A000643089B2080740F1B380DBF81030002B7D
:1053B00000F0AE8001F01A030A2B00F0B580002344
:1053C0000DF170090B93119310930393CDF83C905A
:1053D000CA46CDF810B098F800304446FBB1252BF2
:1053E00002D11CE0252B03D014F8013F002BF9D18A
:1053F000A4EB08059DB1109B119ACAF800800133F7
:105400002A44072BCAF80450119210937ADD002A1F
:1054100040F0B084039B10922B44CA460393237838
:10542000002B00F0E08300204FF000038DF83730B0
:1054300004F1010862780546064603464FF0FF3442
:1054400008F10108A2F12001582900F2DE82DFE80C
:1054500011F02102DC02DC022902DC02DC02DC02A7
:10546000DC02DC02DC0289029502DC02A200BD0241
:10547000DC029F01A401A401A401A401A401A401D0
:10548000A401A401A401DC02DC02DC02DC02DC02D7
:10549000DC02DC02DC02DC02DC02B201DC02DC0247
:1054A000DC02DC02DC02DC02DC02DC02DC02DC020C
:1054B0009701DC02DC02DC02DC02DC029B01DC0284
:1054C000DC025302DC02DC02DC02DC02DC02DC0275
:1054D000DC02DC02DC02DC025A021B02DC02DC021F
:1054E000DC026E021B02DC02DC027302DC02F5014C
:1054F00082010902D702DC029A02DC02A700DC0268
:10550000DC022E020AF1080A039B2B44039386E770
:105510005946069800F0ACFD18BBBBF80C1001F022
:105520001A030A2B7FF44BAFBBF90E30002BFFF6AA
:1055300046AFDBF86430DB0705D48F0503D4DBF816
:10554000580001F0C3FA2B4642465946069800F02F
:105550004DFD039003982DB0BDE8F08F00F0F4FEF0
:1055600009E7DBF86430D90704D4BBF80C309A059E
:1055700040F1AA844FF0FF33039303982DB0BDE8A8
:10558000F08FDBF8580001F09FFABBF90C0081B2F4
:10559000FBE67642079243F0040398F800204FE7B9
:1055A00008969E0600F150840799DD060A4600F130
:1055B000EF83580640F1EC830E8804310027012266
:1055C00007914FF000018DF837100025611C00F0A5
:1055D000168123F08001029156EA070140F0148100
:1055E000002C40F05C83002A40F0B78313F00103E5
:1055F000059300F057840DF1B00B30230BF8413DBB
:10560000059BA342B8BF234601930DB1013301931B
:10561000029B13F00203099302D0019B0233019312
:10562000029B13F084030A9340F01782089B019AAF
:105630009D1A002D40F31182102D40F39084109B91
:10564000119AC44ED6461027A2461946069C07E07A
:1056500001F1020C0EF1080E0146103D102D11DD76
:10566000481C1032072811928EE8C0001090EFDD20
:10567000002A40F0E481103D102D11464FF0010C3E
:10568000CE46EDDC54466146F2462A440729119283
:10569000CAF80060CAF80450109100F3EC829DF83B
:1056A00037500AF1080A481C002D40F0DE81099BA2
:1056B000002B00F0F88102320EA902230728119274
:1056C00010908AE80A0040F3EA81002A40F08C83B7
:1056D0000A9B802B4FF001001146CA4640F0E7813B
:1056E000089B019D5E1B002E40F3E181102E9A4D18
:1056F00040F35084D4461027A246069C07E001F1EF
:10570000020E0CF1080C0146103E102E11DD481C53
:105710001032072811928CE8A0001090EFDD002ACB
:1057200040F09D82103E102E4FF0010E1146CC46E7
:10573000EDDC5446E2463244BEF1070F11928AE88E
:105740006000CDF840E000F369830AF1080A0EF129
:1057500001007146ABE1089613F0200240F08C8303
:1057600013F0100140F01A8313F0400200F016838A
:1057700007980A460146043106880791002720E76A
:10578000089643F01003E7E7089643F0100308E794
:1057900043F0800398F8002052E6A2F13001002681
:1057A00018F8012B06EB860601EB4606A2F1300144
:1057B0000929F5D946E60896002840F0088443F008
:1057C00010039E0600F14C83DD0600F1F3825806BB
:1057D00040F1F082079DB5F900602A46F7170432C0
:1057E000304639460792002871F10002C0F25D830D
:1057F000611C9DF837504FF001027FF4EAAE56EA83
:10580000070100F04D820293012A00F08C82022AE7
:1058100040F05C820B98CB46330906F00F0143EA57
:1058200007733A091E461746435C0BF8013D56EADA
:105830000703F1D1A9EB0B030593E1E6002840F043
:10584000C083990600F16783DA0600F1F1805B06F8
:1058500040F1EE80079A136804320792BDF80C20DD
:105860001A80B8E507983D4A08960B920668782298
:10587000302104308DF8392043F0020307900027CF
:105880008DF8381002229CE60896002899D08DF8F1
:10589000375096E798F80020002D7FF4D1AD012015
:1058A0002025CDE543F0010398F80020C8E50896CF
:1058B000002840F0938329490B919F0600F1E8826C
:1058C0000798DE06014600F170825D0640F16D82A8
:1058D0000431068807910027D80740F1228256EA52
:1058E000070100F01E8230218DF8392043F00203B9
:1058F0008DF83810022264E60896002840F06B8389
:1059000017490B91D9E7079908960A688DF848203E
:105910004FF000000A468DF8370004320120019054
:10592000079205900DF1480B0293002470E643F0B6
:10593000400398F8002083E598F800206C2A03BF04
:1059400098F8012043F0200308F1010843F0100308
:1059500076E500BFFC7640000C774000E076400022
:10596000CC76400007990E680A46002E02F1040228
:10597000FFF60FAE079298F8002061E598F8002036
:1059800001202B255CE507990896D1F800B04FF06F
:1059900000028DF837200E1DBBF1000F00F0E582EC
:1059A000671C00F0C482224600215846019301F092
:1059B0001FF9019B002800F0E582A0EB0B02059285
:1059C000079602939DF83750002419E698F80020B6
:1059D0002A2A08F1010700F0E982A2F13001092921
:1059E000B8464FF000043FF62DAD18F8012B04EB3C
:1059F000840401EB4404A2F130010929F5D921E521
:105A000043F0200398F800201AE50896002840F09B
:105A1000DB82002A00F0E78001218DF848204FF05A
:105A2000000201918DF8372005910DF1480B7BE7BD
:105A3000079A136804320792039A1A60CBE40FAAFC
:105A400004992046FFF74AFC002840F0398110995C
:105A5000119A01F1010CCE46FFE51099119A481CEC
:105A60009DF83750002D3FF422AE01320DF137057D
:105A70000121072811921090CAF80050CAF80410AA
:105A800040F30881002A40F0BC81099B002B3FF4C1
:105A90001FAE0EAB022208461C931D92CA46014659
:105AA0000AF1080A01300A9B802B3FF419AE059BCE
:105AB000E41A002C2EDD102CB34D1EDDD646102628
:105AC000069FDDF810A006E0881C0EF1080E1946AE
:105AD000103C102C10DD4B1C1032072B11928EE85D
